{
  "_format": "hh-sol-artifact-1",
  "contractName": "SupplyChain",
  "sourceName": "contracts/SupplyChain.sol",
  "abi": [
    {
      "inputs": [],
      "stateMutability": "nonpayable",
      "type": "constructor"
    },
    {
      "anonymous": false,
      "inputs": [
        {
          "indexed": false,
          "internalType": "string",
          "name": "donationId",
          "type": "string"
        },
        {
          "indexed": false,
          "internalType": "address",
          "name": "donor",
          "type": "address"
        },
        {
          "indexed": false,
          "internalType": "uint256",
          "name": "amount",
          "type": "uint256"
        }
      ],
      "name": "DonationRecorded",
      "type": "event"
    },
    {
      "anonymous": false,
      "inputs": [
        {
          "indexed": false,
          "internalType": "uint256",
          "name": "id",
          "type": "uint256"
        },
        {
          "indexed": false,
          "internalType": "string",
          "name": "name",
          "type": "string"
        },
        {
          "indexed": false,
          "internalType": "address",
          "name": "owner",
          "type": "address"
        }
      ],
      "name": "ItemCreated",
      "type": "event"
    },
    {
      "anonymous": false,
      "inputs": [
        {
          "indexed": false,
          "internalType": "uint256",
          "name": "id",
          "type": "uint256"
        },
        {
          "indexed": false,
          "internalType": "enum SupplyChain.ItemStatus",
          "name": "status",
          "type": "uint8"
        },
        {
          "indexed": false,
          "internalType": "address",
          "name": "owner",
          "type": "address"
        }
      ],
      "name": "ItemStatusChanged",
      "type": "event"
    },
    {
      "inputs": [],
      "name": "admin",
      "outputs": [
        {
          "internalType": "address",
          "name": "",
          "type": "address"
        }
      ],
      "stateMutability": "view",
      "type": "function"
    },
    {
      "inputs": [
        {
          "internalType": "string",
          "name": "_name",
          "type": "string"
        },
        {
          "internalType": "string",
          "name": "_description",
          "type": "string"
        },
        {
          "internalType": "uint256",
          "name": "_quantity",
          "type": "uint256"
        }
      ],
      "name": "createItem",
      "outputs": [],
      "stateMutability": "nonpayable",
      "type": "function"
    },
    {
      "inputs": [
        {
          "internalType": "string",
          "name": "",
          "type": "string"
        }
      ],
      "name": "donations",
      "outputs": [
        {
          "internalType": "string",
          "name": "donationId",
          "type": "string"
        },
        {
          "internalType": "address",
          "name": "donor",
          "type": "address"
        },
        {
          "internalType": "uint256",
          "name": "amount",
          "type": "uint256"
        },
        {
          "internalType": "string",
          "name": "purpose",
          "type": "string"
        },
        {
          "internalType": "uint256",
          "name": "timestamp",
          "type": "uint256"
        },
        {
          "internalType": "bool",
          "name": "isUsed",
          "type": "bool"
        }
      ],
      "stateMutability": "view",
      "type": "function"
    },
    {
      "inputs": [
        {
          "internalType": "string",
          "name": "_donationId",
          "type": "string"
        }
      ],
      "name": "getDonation",
      "outputs": [
        {
          "components": [
            {
              "internalType": "string",
              "name": "donationId",
              "type": "string"
            },
            {
              "internalType": "address",
              "name": "donor",
              "type": "address"
            },
            {
              "internalType": "uint256",
              "name": "amount",
              "type": "uint256"
            },
            {
              "internalType": "string",
              "name": "purpose",
              "type": "string"
            },
            {
              "internalType": "uint256",
              "name": "timestamp",
              "type": "uint256"
            },
            {
              "internalType": "bool",
              "name": "isUsed",
              "type": "bool"
            }
          ],
          "internalType": "struct SupplyChain.Donation",
          "name": "",
          "type": "tuple"
        }
      ],
      "stateMutability": "view",
      "type": "function"
    },
    {
      "inputs": [],
      "name": "itemCount",
      "outputs": [
        {
          "internalType": "uint256",
          "name": "",
          "type": "uint256"
        }
      ],
      "stateMutability": "view",
      "type": "function"
    },
    {
      "inputs": [
        {
          "internalType": "uint256",
          "name": "",
          "type": "uint256"
        }
      ],
      "name": "items",
      "outputs": [
        {
          "internalType": "uint256",
          "name": "id",
          "type": "uint256"
        },
        {
          "internalType": "string",
          "name": "name",
          "type": "string"
        },
        {
          "internalType": "string",
          "name": "description",
          "type": "string"
        },
        {
          "internalType": "uint256",
          "name": "quantity",
          "type": "uint256"
        },
        {
          "internalType": "enum SupplyChain.ItemStatus",
          "name": "status",
          "type": "uint8"
        },
        {
          "internalType": "address",
          "name": "currentOwner",
          "type": "address"
        },
        {
          "internalType": "uint256",
          "name": "timestamp",
          "type": "uint256"
        }
      ],
      "stateMutability": "view",
      "type": "function"
    },
    {
      "inputs": [
        {
          "internalType": "string",
          "name": "_donationId",
          "type": "string"
        },
        {
          "internalType": "uint256",
          "name": "_amount",
          "type": "uint256"
        },
        {
          "internalType": "string",
          "name": "_purpose",
          "type": "string"
        }
      ],
      "name": "recordDonation",
      "outputs": [],
      "stateMutability": "nonpayable",
      "type": "function"
    },
    {
      "inputs": [
        {
          "internalType": "uint256",
          "name": "_id",
          "type": "uint256"
        },
        {
          "internalType": "enum SupplyChain.ItemStatus",
          "name": "_status",
          "type": "uint8"
        }
      ],
      "name": "updateItemStatus",
      "outputs": [],
      "stateMutability": "nonpayable",
      "type": "function"
    }
  ],
  "bytecode": "0x608060405234801561001057600080fd5b5033600360006101000a81548173ffffffffffffffffffffffffffffffffffffffff021916908373ffffffffffffffffffffffffffffffffffffffff160217905550611901806100616000396000f3fe608060405234801561001057600080fd5b50600436106100885760003560e01c80636bfb0d011161005b5780636bfb0d011461012a578063b064645b14610148578063bfb231d214610164578063f851a4401461019a57610088565b80632dcb22271461008d5780635adce332146100c25780635fb6161c146100f257806363dcfa721461010e575b600080fd5b6100a760048036038101906100a29190610dc5565b6101b8565b6040516100b996959493929190610f02565b60405180910390f35b6100dc60048036038101906100d79190610dc5565b610347565b6040516100e99190611078565b60405180910390f35b61010c600480360381019061010791906110c6565b610528565b005b61012860048036038101906101239190611151565b61078b565b005b6101326108d9565b60405161013f91906111dc565b60405180910390f35b610162600480360381019061015d919061121c565b6108df565b005b61017e6004803603810190610179919061125c565b610a78565b6040516101919796959493929190611300565b60405180910390f35b6101a2610bf7565b6040516101af919061137d565b60405180910390f35b6001818051602081018201805184825260208301602085012081835280955050505050506000915090508060000180546101f1906113c7565b80601f016020809104026020016040519081016040528092919081815260200182805461021d906113c7565b801561026a5780601f1061023f5761010080835404028352916020019161026a565b820191906000526020600020905b81548152906001019060200180831161024d57829003601f168201915b5050505050908060010160009054906101000a900473ffffffffffffffffffffffffffffffffffffffff16908060020154908060030180546102ab906113c7565b80601f01602080910402602001604051908101604052809291908181526020018280546102d7906113c7565b80156103245780601f106102f957610100808354040283529160200191610324565b820191906000526020600020905b81548152906001019060200180831161030757829003601f168201915b5050505050908060040154908060050160009054906101000a900460ff16905086565b61034f610c1d565b60018260405161035f9190611434565b90815260200160405180910390206040518060c0016040529081600082018054610388906113c7565b80601f01602080910402602001604051908101604052809291908181526020018280546103b4906113c7565b80156104015780601f106103d657610100808354040283529160200191610401565b820191906000526020600020905b8154815290600101906020018083116103e457829003601f168201915b505050505081526020016001820160009054906101000a900473ffffffffffffffffffffffffffffffffffffffff1673ffffffffffffffffffffffffffffffffffffffff1673ffffffffffffffffffffffffffffffffffffffff1681526020016002820154815260200160038201805461047a906113c7565b80601f01602080910402602001604051908101604052809291908181526020018280546104a6906113c7565b80156104f35780601f106104c8576101008083540402835291602001916104f3565b820191906000526020600020905b8154815290600101906020018083116104d657829003601f168201915b50505050508152602001600482015481526020016005820160009054906101000a900460ff1615151515815250509050919050565b600360009054906101000a900473ffffffffffffffffffffffffffffffffffffffff1673ffffffffffffffffffffffffffffffffffffffff163373ffffffffffffffffffffffffffffffffffffffff16146105b8576040517f08c379a00000000000000000000000000000000000000000000000000000000081526004016105af90611497565b60405180910390fd5b600260008154809291906105cb906114e6565b91905055506040518060e0016040528060025481526020018481526020018381526020018281526020016000600381111561060957610608611289565b5b8152602001600360009054906101000a900473ffffffffffffffffffffffffffffffffffffffff1673ffffffffffffffffffffffffffffffffffffffff16815260200142815250600080600254815260200190815260200160002060008201518160000155602082015181600101908161068391906116da565b50604082015181600201908161069991906116da565b506060820151816003015560808201518160040160006101000a81548160ff021916908360038111156106cf576106ce611289565b5b021790555060a08201518160040160016101000a81548173ffffffffffffffffffffffffffffffffffffffff021916908373ffffffffffffffffffffffffffffffffffffffff16021790555060c082015181600501559050507efd4d38e2e6a0a8a90d326b227b226214bb94c92231097ba085de4450b5e0f660025484600360009054906101000a900473ffffffffffffffffffffffffffffffffffffffff1660405161077e939291906117ac565b60405180910390a1505050565b6040518060c001604052808481526020013373ffffffffffffffffffffffffffffffffffffffff168152602001838152602001828152602001428152602001600015158152506001846040516107e19190611434565b9081526020016040518091039020600082015181600001908161080491906116da565b5060208201518160010160006101000a81548173ffffffffffffffffffffffffffffffffffffffff021916908373ffffffffffffffffffffffffffffffffffffffff16021790555060408201518160020155606082015181600301908161086b91906116da565b506080820151816004015560a08201518160050160006101000a81548160ff0219169083151502179055509050507fec3819e1dd983fdcb59fe90285c88d08126f373be8db02a25c4d30b4d1831b6c8333846040516108cc939291906117ea565b60405180910390a1505050565b60025481565b600360009054906101000a900473ffffffffffffffffffffffffffffffffffffffff1673ffffffffffffffffffffffffffffffffffffffff163373ffffffffffffffffffffffffffffffffffffffff161461096f576040517f08c379a000000000000000000000000000000000000000000000000000000000815260040161096690611497565b60405180910390fd5b60008211801561098157506002548211155b6109c0576040517f08c379a00000000000000000000000000000000000000000000000000000000081526004016109b790611874565b60405180910390fd5b8060008084815260200190815260200160002060040160006101000a81548160ff021916908360038111156109f8576109f7611289565b5b021790555042600080848152602001908152602001600020600501819055507f8429f58ad0511cc37da8b36039d23557d20ca5902ff5efb9f9b5ac965638a4de8282600360009054906101000a900473ffffffffffffffffffffffffffffffffffffffff16604051610a6c93929190611894565b60405180910390a15050565b6000602052806000526040600020600091509050806000015490806001018054610aa1906113c7565b80601f0160208091040260200160405190810160405280929190818152602001828054610acd906113c7565b8015610b1a5780601f10610aef57610100808354040283529160200191610b1a565b820191906000526020600020905b815481529060010190602001808311610afd57829003601f168201915b505050505090806002018054610b2f906113c7565b80601f0160208091040260200160405190810160405280929190818152602001828054610b5b906113c7565b8015610ba85780601f10610b7d57610100808354040283529160200191610ba8565b820191906000526020600020905b815481529060010190602001808311610b8b57829003601f168201915b5050505050908060030154908060040160009054906101000a900460ff16908060040160019054906101000a900473ffffffffffffffffffffffffffffffffffffffff16908060050154905087565b600360009054906101000a900473ffffffffffffffffffffffffffffffffffffffff1681565b6040518060c0016040528060608152602001600073ffffffffffffffffffffffffffffffffffffffff1681526020016000815260200160608152602001600081526020016000151581525090565b6000604051905090565b600080fd5b600080fd5b600080fd5b600080fd5b6000601f19601f8301169050919050565b7f4e487b7100000000000000000000000000000000000000000000000000000000600052604160045260246000fd5b610cd282610c89565b810181811067ffffffffffffffff82111715610cf157610cf0610c9a565b5b80604052505050565b6000610d04610c6b565b9050610d108282610cc9565b919050565b600067ffffffffffffffff821115610d3057610d2f610c9a565b5b610d3982610c89565b9050602081019050919050565b82818337600083830152505050565b6000610d68610d6384610d15565b610cfa565b905082815260208101848484011115610d8457610d83610c84565b5b610d8f848285610d46565b509392505050565b600082601f830112610dac57610dab610c7f565b5b8135610dbc848260208601610d55565b91505092915050565b600060208284031215610ddb57610dda610c75565b5b600082013567ffffffffffffffff811115610df957610df8610c7a565b5b610e0584828501610d97565b91505092915050565b600081519050919050565b600082825260208201905092915050565b60005b83811015610e48578082015181840152602081019050610e2d565b60008484015250505050565b6000610e5f82610e0e565b610e698185610e19565b9350610e79818560208601610e2a565b610e8281610c89565b840191505092915050565b600073ffffffffffffffffffffffffffffffffffffffff82169050919050565b6000610eb882610e8d565b9050919050565b610ec881610ead565b82525050565b6000819050919050565b610ee181610ece565b82525050565b60008115159050919050565b610efc81610ee7565b82525050565b600060c0820190508181036000830152610f1c8189610e54565b9050610f2b6020830188610ebf565b610f386040830187610ed8565b8181036060830152610f4a8186610e54565b9050610f596080830185610ed8565b610f6660a0830184610ef3565b979650505050505050565b600082825260208201905092915050565b6000610f8d82610e0e565b610f978185610f71565b9350610fa7818560208601610e2a565b610fb081610c89565b840191505092915050565b610fc481610ead565b82525050565b610fd381610ece565b82525050565b610fe281610ee7565b82525050565b600060c08301600083015184820360008601526110058282610f82565b915050602083015161101a6020860182610fbb565b50604083015161102d6040860182610fca565b50606083015184820360608601526110458282610f82565b915050608083015161105a6080860182610fca565b5060a083015161106d60a0860182610fd9565b508091505092915050565b600060208201905081810360008301526110928184610fe8565b905092915050565b6110a381610ece565b81146110ae57600080fd5b50565b6000813590506110c08161109a565b92915050565b6000806000606084860312156110df576110de610c75565b5b600084013567ffffffffffffffff8111156110fd576110fc610c7a565b5b61110986828701610d97565b935050602084013567ffffffffffffffff81111561112a57611129610c7a565b5b61113686828701610d97565b9250506040611147868287016110b1565b9150509250925092565b60008060006060848603121561116a57611169610c75565b5b600084013567ffffffffffffffff81111561118857611187610c7a565b5b61119486828701610d97565b93505060206111a5868287016110b1565b925050604084013567ffffffffffffffff8111156111c6576111c5610c7a565b5b6111d286828701610d97565b9150509250925092565b60006020820190506111f16000830184610ed8565b92915050565b6004811061120457600080fd5b50565b600081359050611216816111f7565b92915050565b6000806040838503121561123357611232610c75565b5b6000611241858286016110b1565b925050602061125285828601611207565b9150509250929050565b60006020828403121561127257611271610c75565b5b6000611280848285016110b1565b91505092915050565b7f4e487b7100000000000000000000000000000000000000000000000000000000600052602160045260246000fd5b600481106112c9576112c8611289565b5b50565b60008190506112da826112b8565b919050565b60006112ea826112cc565b9050919050565b6112fa816112df565b82525050565b600060e082019050611315600083018a610ed8565b81810360208301526113278189610e54565b9050818103604083015261133b8188610e54565b905061134a6060830187610ed8565b61135760808301866112f1565b61136460a0830185610ebf565b61137160c0830184610ed8565b98975050505050505050565b60006020820190506113926000830184610ebf565b92915050565b7f4e487b7100000000000000000000000000000000000000000000000000000000600052602260045260246000fd5b600060028204905060018216806113df57607f821691505b6020821081036113f2576113f1611398565b5b50919050565b600081905092915050565b600061140e82610e0e565b61141881856113f8565b9350611428818560208601610e2a565b80840191505092915050565b60006114408284611403565b915081905092915050565b7f4f6e6c792061646d696e2063616e2063616c6c20746869730000000000000000600082015250565b6000611481601883610e19565b915061148c8261144b565b602082019050919050565b600060208201905081810360008301526114b081611474565b9050919050565b7f4e487b7100000000000000000000000000000000000000000000000000000000600052601160045260246000fd5b60006114f182610ece565b91507fffffffffffffffffffffffffffffffffffffffffffffffffffffffffffffffff8203611523576115226114b7565b5b600182019050919050565b60008190508160005260206000209050919050565b60006020601f8301049050919050565b600082821b905092915050565b6000600883026115907fffffffffffffffffffffffffffffffffffffffffffffffffffffffffffffffff82611553565b61159a8683611553565b95508019841693508086168417925050509392505050565b6000819050919050565b60006115d76115d26115cd84610ece565b6115b2565b610ece565b9050919050565b6000819050919050565b6115f1836115bc565b6116056115fd826115de565b848454611560565b825550505050565b600090565b61161a61160d565b6116258184846115e8565b505050565b5b818110156116495761163e600082611612565b60018101905061162b565b5050565b601f82111561168e5761165f8161152e565b61166884611543565b81016020851015611677578190505b61168b61168385611543565b83018261162a565b50505b505050565b600082821c905092915050565b60006116b160001984600802611693565b1980831691505092915050565b60006116ca83836116a0565b9150826002028217905092915050565b6116e382610e0e565b67ffffffffffffffff8111156116fc576116fb610c9a565b5b61170682546113c7565b61171182828561164d565b600060209050601f8311600181146117445760008415611732578287015190505b61173c85826116be565b8655506117a4565b601f1984166117528661152e565b60005b8281101561177a57848901518255600182019150602085019450602081019050611755565b868310156117975784890151611793601f8916826116a0565b8355505b6001600288020188555050505b505050505050565b60006060820190506117c16000830186610ed8565b81810360208301526117d38185610e54565b90506117e26040830184610ebf565b949350505050565b600060608201905081810360008301526118048186610e54565b90506118136020830185610ebf565b6118206040830184610ed8565b949350505050565b7f496e76616c6964206974656d2049440000000000000000000000000000000000600082015250565b600061185e600f83610e19565b915061186982611828565b602082019050919050565b6000602082019050818103600083015261188d81611851565b9050919050565b60006060820190506118a96000830186610ed8565b6118b660208301856112f1565b6118c36040830184610ebf565b94935050505056fea2646970667358221220e55c7a965731440ae35859a30db964ef233f7bf6eeb201d8c475e5de7305365b64736f6c63430008140033",
  "linkReferences": {},
  "deployedLinkReferences": {}
}